:100000000C9434000C9451000C9451000C94260173
:100010000C9451000C9451000C9451000C9451001C
:100020000C9451000C9451000C9451000C9451000C
:100030000C9451000C9451000C9453000C945100FA
:100040000C9451000C9451000C9451000C945100EC
:100050000C9451000C9451000C9451000C945100DC
:100060000C9451000C94510011241FBECFEFD8E026
:10007000DEBFCDBF11E0A0E0B1E0EEEBF3E002C0E7
:1000800005900D92AA30B107D9F721E0AAE0B1E0BE
:1000900001C01D92AA31B207E1F70E94B9010C9488
:1000A000DD010C9400001F920F920FB60F921124E5
:1000B0002F933F938F939F9380910B0190910C010D
:1000C000019690930C0180930B0120910B013091CC
:1000D0000C0180910D0190910E012817390709F448
:1000E000449A9F918F913F912F910F900FBE0F9047
:1000F0001F90189587B18F6387B908958FEF8AB9DC
:100100000E947A0084B18C7F84B985B1836085B9FF
:10011000E8E6F0E0808181608083EBE6F0E08081BA
:10012000836080830895CF93DF93EC01E0E1F1E0F9
:100130002AE030E0B9010E94C9018083CB01B901F6
:100140000E94C9018183CE0164E670E00E94C9016A
:10015000CB01B9010E94C9018283CE0168EE73E030
:100160000E94C901CB01B9010E94C9018383DF91BB
:10017000CF910895CF93DF93EB010E94930090E01D
:1001800080E08C179D0719F4DF91CF910895E091DD
:100190001001F0E0E050FF4F20812BB9439A21E29B
:1001A0002A95F1F7000043981BB8E0911101F0E0A7
:1001B000E050FF4F20812BB9429A21E22A95F1F7B6
:1001C000000042981BB8E0911201F0E0E050FF4FB0
:1001D00020812BB9419A21E22A95F1F7000041983C
:1001E0001BB8E0911301F0E0E050FF4F20812BB9E4
:1001F000409A21E22A95F1F7000040981BB8019639
:10020000C0CFECE7F0E080818064808380818078DB
:1002100080838081807E8083EAE7F0E08081836054
:10022000808380818B7F8083808180688083089534
:1002300080917A00806480937A0080917A0086FDB4
:10024000FCCF809178009091790008951F920F92D1
:100250000FB60F9211242F933F934F935F936F9399
:100260007F938F939F93AF93BF93EF93FF931899CF
:100270002FC080910A0181112BC010920C011092A5
:100280000B010E941801880F991F880F991F9093E6
:100290000E0180930D0180910B0190910C019093C0
:1002A000170180931601459A81E080930A01FF911E
:1002B000EF91BF91AF919F918F917F916F915F91DE
:1002C0004F913F912F910F900FBE0F901F90189557
:1002D000199922C080910A018130F1F480910B01BB
:1002E00090910C0190931501809314018091140159
:1002F00090911501409116015091170120910D0127
:1003000030910E01841B950B821B930B9093190166
:100310008093180182E0C9CF1899C9CF80910A0152
:10032000823029F688B18F7C88B910921901109219
:10033000180110920A012FE986E891E021508040CF
:100340009040E1F700C00000B2CF84B5826084BD68
:1003500084B5867F84BD85B5826085BD85B58A7F7D
:1003600085BDEEE6F0E08081826080838CE787BD0A
:1003700008950E947E000E9401010E94A5017894C8
:10038000809118019091190164EF71E00E94BA0008
:10039000F7CFAA1BBB1B51E107C0AA1FBB1FA617A3
:1003A000B70710F0A61BB70B881F991F5A95A9F71E
:0E03B00080959095BC01CD010895F894FFCF83
:0A03BE00FC60DAF266B6BEE0FEF65F
:00000001FF
